:020000040000FA
:100000000C9424110C9455110C9455110C94551109
:100010000C9455110C9455110C9455110C945511C8
:100020000C9455110C9455110C9455110C945511B8
:100030000C9455110C9455110C9455110C945511A8
:100040000C9455110C94DE170C9455110C94551109
:100050000C9455110C9455110C94E2160C94CE8B03
:100060000C9455110C94F2400C94DE400C945511F4
:100070000C9455110C9455110C9455110C94551168
:100080000C9455110C9455110C9455110C94551158
:100090000C9489280C94E8400C9455110C9455113B
:1000A0000C9455110C9455110C9455110C94551138
:1000B0000C9455110C9455110C9455110C94551128
:1000C0000C9455110C9455110C9455110C94551118
:1000D0000C9455110C9455110C9455110C94551108
:1000E0000C945511084AD73B3BCE016E84BCBFFD32
:1000F000C12F3D6C74319ABD56833DDA3D00C77FF8
:1001000011BED9E4BB4C3E916BAAAABE0000008090
:100110003F05A84CCDB2D44EB93836A9020C50B91F
:10012000918688083CA6AAAA2ABE000000803F004B
:100130000C944D2A0C941A760C942A990C94169FC0
:100140000C94572A0C94FBA20C946E9B0C94E829F7
:100150000C9439A20C9432760C944E9B0C944076FD
:100160000C94A99B0C94179B0C94FAA00C94C5A119
:100170000C9462A40C9409760C94009E0C94ACA38D
:100180000C944FA40C94089E0C94CA290C9440A77C
:100190000C9428760C947C9B0C94B19E0C94FE9B42
:1001A0000C94C9A20C9405760C94FF990C942F2AF8
:1001B0000C94E2A10C94C4990C94F69E0C946D9945
:1001C0000C946F9F0C94F8290C943F760C94162A8B
:1001D0000C940C2A0C94A8A10C94729E0C9406A169
:1001E0000C94539C0C94429F0C94D2990C9476A33B
:1001F0000C94CF9D0C941CA20C9447A20C94252A1D
:100200000C94A4990C94F0290C94989E0C94FD9D48
:100210000C94559D0C94D5A00C9422A70C9451A13C
:100220000C94BD9D0C94429A0C941E760C94AB9D3C
:100230000C9436760C9470A30C942C760C945EA3DC
:100240000C94C0290C9414760C94DF9D0C9402A39A
:100250000C94FA9F0C9453A20C94C5290C94FA9D0B
:100260000C9485A00C943A760C94049E0C94A99C52
:100270000C94022A0C940D760C94FF750C94CB9779
:100280000C9411760C94C79A0C94DE290C9427A137
:100290000C940B9F0C94999A0C94F59D0C94432A02
:1002A0000C94FF9C0C94392A0C94D4290C94799AC0
:1002B0000C94FFA10C94F2990C94D49A0C9424768B
:1002C0000C9444760C94209E0C94A79A0C949C9BBE
:1002D0004E414E494E495459494E46CDCCCC3D0A2B
:1002E000D7233C17B7D13877CC2B329595E6241F0E
:1002F000B14F0A000020410000C84200401C4620C7
:10030000BCBE4CCA1B0E5AAEC59D7400407A10F399
:100310005A00A0724E18090010A5D4E80000E87633
:1003200048170000E40B54020000CA9A3B0000008A
:10033000E1F505000080969800000040420F0000A3
:1003400000A08601000000102700000000E8030064
:100350000000006400000000000A0000000000012E
:1003600000000000002C76D888DC674F0823DFC12E
:10037000DFAE59E1B1B796E5E3E453C63AE65199E9
:100380007696E8E6C28426EB898C9B62ED407C6F12
:10039000FCEFBC9C9F40F2BAA56FA5F490055A2AC9
:1003A000F75C936B6CF9676DC11BFCE0E40D47FED5
:1003B000F520E6B500D0ED902E03009435770500CA
:1003C00080841E080000204E0A000000C80C333351
:1003D00033330F986E12831141EF8D2114893BE660
:1003E0005516CFFEE6DB18D1844B381BF77C1D90E9
:1003F0001DA4BBE424203284725E228100C9F12452
:10040000ECA1E53D27434F4D4D554E4943415449DD
:100410004F4E0044525952554E004552524F52537E
:1004200000494E464F004543484F004572726F7277
:100430002077726974696E6720746F204545505249
:100440004F4D210A00363726033C3D380E2E303EF4
:10045000231A1C1808440AFF430809000162757337
:10046000793A2070617573656420666F7220696ED9
:100470007075740A00627573793A207061757365DE
:100480006420666F7220757365720A0062757379F5
:100490003A2070726F63657373696E670A00212179
:1004A000204B494C4C206361757365642062792050
:1004B000746F6F206D75636820696E61637469760F
:1004C000652074696D65202D2063757272656E7488
:1004D00020636F6D6D616E643A20005072696E74B6
:1004E00065722073746F7070656420647565207424
:1004F0006F206572726F72732E204669782074685F
:1005000065206572726F7220616E6420757365205C
:100510004D39393920746F20726573746172742E8D
:10052000202854656D7065726174757265206973F9
:100530002072657365742E20536574206974206180
:10054000667465722072657374617274696E67296E
:100550000A004E6F20436865636B73756D20776981
:100560007468206C696E65206E756D6265722C20F2
:100570004C617374204C696E653A20004E6F2043C5
:100580006865636B73756D2077697468206C696E3C
:1005900065206E756D6265722C204C617374204C01
:1005A000696E653A2000636865636B73756D206DD5
:1005B00069736D617463682C204C617374204C699D
:1005C0006E653A20004C696E65204E756D626572ED
:1005D000206973206E6F74204C617374204C696EB7
:1005E00065204E756D6265722B312C204C617374E1
:1005F000204C696E653A20004D3131300053442063
:1006000072656164206572726F720A004D32350A3C
:100610004D323030330050726F62696E6720466130
:10062000696C656400486F6D696E67204661696C2E
:10063000656400453100544845524D414C205255A7
:100640004E415741590045310048656174696E67F4
:10065000204661696C6564004531004572723A203C
:100660004D415854454D50004265640045310045A8
:1006700072723A204D494E54454D50004572726F8A
:10068000722025693A202573004B494C4C45442E75
:1006900020006563686F3A004572726F723A0049D4
:1006A0006E76616C69642050696E204D6F64650AD6
:1006B00000526573756D6520726571756972657339
:1006C000204C43442E0A004D32342053256C6420C4
:1006D00054256C64004739322E3920452573004774
:1006E0003120462564004739322E39205A257300BF
:1006F0004731205A302046323030004731205825CB
:100700007320592573204633303030004D31303658
:100710002050256920532569004739322E3920455C
:10072000305A300A47315A300A4732385230585915
:10073000004D31303920532569004D313930205377
:100740002569004D323030204425730020496E76F3
:10075000616C69642065787472756465722000202C
:10076000746F6F206C6F6E67206578747275736933
:100770006F6E2070726576656E7465640A00206322
:100780006F6C6420657874727573696F6E20707217
:100790006576656E7465640A0047322F47332062C0
:1007A000616420706172616D65746572730A0045E1
:1007B0006E642066696C65206C6973740A0042651A
:1007C00067696E2066696C65206C6973740A00281D
:1007D0006E6F2066696C65290043757272656E7470
:1007E0002066696C653A20005344207072696E740B
:1007F000696E67206279746520004E6F74205344DF
:10080000207072696E74696E670A0043616E6E6F64
:1008100074206F70656E20737562646972200025A4
:1008200069730025696D2025697300256968202595
:10083000696D202569730025696420256968202574
:10084000696D202569730025697920256964202553
:1008500069682025696D20256973005072696E747E
:100860002074696D653A20006F6B006F6666002624
:100870000421041A041304050444454255473A0070
:100880004D3131322053687574646F776E004D318D
:10089000313320530020573A004348414D424552DE
:1008A0005F54454D5045524154555245004D4F54AB
:1008B000494F4E5F4D4F44455300544845524D41BA
:1008C0004C5F50524F54454354494F4E004155548C
:1008D0004F5245504F52545F53445F535441545507
:1008E000530050524F4D50545F535550504F525437
:1008F00000454D455247454E43595F50415253457F
:100900005200434153455F4C494748545F42524966
:100910004748544E45535300544F47474C455F4C4E
:10092000494748545300534F4654574152455F502E
:100930004F574552004255494C445F50455243453C
:100940004E54004C4556454C494E475F4441544136
:10095000005A5F50524F4245004155544F4C455646
:10096000454C005052494E545F4A4F420050524F3E
:100970004752455353004155544F5245504F5254DE
:100980005F54454D5000564F4C554D4554524943C8
:1009900000454550524F4D0042494E4152595F4625
:1009A000494C455F5452414E5346455200534552BF
:1009B00049414C5F584F4E5F584F4646004649529A
:1009C0004D574152455F4E414D453A4D61726C69FC
:1009D0006E20302E342E302D4D61726C696E322EA9
:1009E0007820284769744875622920534F5552432F
:1009F000455F434F44455F55524C3A687474707379
:100A00003A2F2F6769746875622E636F6D2F4C4F94
:100A10004E47455233442050524F544F434F4C5F42
:100A200056455253494F4E3A312E30204D4143489E
:100A3000494E455F545950453A4C6F6E6765723365
:100A400044204C4B342050726F204558545255442A
:100A500045525F434F554E543A3120555549443A1B
:100A600063656465326132662D343161322D34370D
:100A700034382D396231322D633535633632663381
:100A8000363766660A002F2F2000416363656C6568
:100A9000726174696F6E00466565647261746500A9
:100AA000205200416363656C65726174696F6E3AD0
:100AB00020500020204D61783A2000200020204D59
:100AC000696E3A2000536F667420656E6473746FAC
:100AD00070733A200046523A0020466C6F773A20F5
:100AE0000050726F7465637465642050696E0A000B
:100AF00020643A0020693A0020703A00496E76611D
:100B00006C69642065787472756465720A0020648B
:100B10003A0020693A0020703A0064697300656EFB
:100B20000043290A0061626C656420286D696E20AB
:100B300074656D702000436F6C6420657874727505
:100B400064657320617265200046696C616D656E35
:100B5000742072756E6F75742000546F6F2066611B
:100B6000722066726F6D207265666572656E636570
:100B700020706F696E740A00454550524F4D204FEA
:100B80004B0A004F4646004F4E00506F7765722D5E
:100B90006C6F7373207265636F766572792000499C
:100BA0006E76616C69642065787472756465720A2A
:100BB00000220A00656E7175657565696E67202291
:100BC000006F6B00526573656E643A20004361707C
:100BD0003A0020573A0023646566696E65204445F3
:100BE0004641554C545F0000626564004B64200030
:100BF0004B6920004B702000504944204175746FB0
:100C000074756E652066696E69736865642120502D
:100C1000757420746865206C617374204B702C208F
:100C20004B6920616E64204B6420636F6E73746146
:100C30006E74732066726F6D2062656C6F772069C9
:100C40006E746F20436F6E66696775726174696F49
:100C50006E2E680A00504944204175746F74756E99
:100C600065206661696C6564212074696D656F75C6
:100C7000740A00504944204175746F74756E652084
:100C80006661696C6564212054656D70657261747C
:100C900075726520746F6F20686967680A00204B61
:100CA000643A2000204B693A2000204B703A200023
:100CB0000A20436C617373696320504944200A0021
:100CC000204B643A2000204B693A2000204B703AB8
:100CD00020000A204E6F206F76657273686F6F7404
:100CE0000A002054753A2000204B753A2000206DF0
:100CF00061783A2000206D696E3A200020643A2025
:100D00000020626961733A200050494420417574A3
:100D10006F74756E652073746172740A0050494473
:100D2000204175746F74756E65206661696C6564C9
:100D3000212054656D706572617475726520746FE1
:100D40006F20686967680A00504944204175746FD4
:100D500074756E65206661696C656421204261640A
:100D6000206578747275646572206E756D62657247
:100D70000A0000005C4300005C4300007A4300006E
:100D800000000000000000000000290A0020627935
:100D90007465733B20637263200053657474696EDD
:100DA00067732053746F7265642028004545505264
:100DB0004F4D206461746173697A65206572726F4A
:100DC000722E0A00290A002062797465733B206341
:100DD000726320002073746F72656420736574748D
:100DE000696E677320726574726965766564202820
:100DF00000202863616C63756C6174656429210A45
:100E00000020213D2000454550524F4D2043524384
:100E1000206D69736D61746368202D202873746F71
:100E20007265642920002053697A653A2000496E72
:100E30006465783A2000204D61726C696E3D5637CA
:100E400036290A00454550524F4D20766572736928
:100E50006F6E206D69736D6174636820284545501D
:100E6000524F4D3D0048617264636F646564204475
:100E7000656661756C742053657474696E67732060
:100E80004C6F616465640A000000484300004843F9
:100E90000000A0400000C8410000A0420000A042A5
:100EA0000000C8430080C143C8000000C800000023
:100EB00064000000B80B00003B200020204D3431BE
:100EC0003220530046696C616D656E742072756ED8
:100ED0006F75742073656E736F723A0020204D3405
:100EE0003133205300506F7765722D4C6F73732030
:100EF0005265636F766572793A002044002049009C
:100F000020204D3330342050002044002049002060
:100F1000204D3330312050005049442073657474A3
:100F2000696E67733A0020204D32303620580048F1
:100F30006F6D65206F66667365743A0020580020F7
:100F4000530020204D323035204200416476616EDE
:100F50006365643A20423C6D696E5F7365676D65D9
:100F60006E745F74696D655F75733E20533C6D6987
:100F70006E5F66656564726174653E20543C6D69A0
:100F80006E5F74726176656C5F66656564726174CC
:100F9000653E20583C6D61785F785F6A65726B3E94
:100FA00020593C6D61785F795F6A65726B3E205AAB
:100FB0003C6D61785F7A5F6A65726B3E20453C6D7F
:100FC00061785F655F6A65726B3E00205400205255
:100FD0000020204D323034205000416363656C6541
:100FE000726174696F6E2028756E6974732F733225
:100FF000293A20503C7072696E745F616363656C5E
:101000003E20523C726574726163745F6163636514
:101010006C3E20543C74726176656C5F61636365FD
:101020006C3E0020204D3230312058004D617869EF
:101030006D756D20416363656C65726174696F6E77
:101040002028756E6974732F7332293A0020204D61
:101050003230332058004D6178696D756D206665BA
:10106000656472617465732028756E6974732F737B
:10107000293A0053746570732070657220756E692B
:10108000743A0020204D3230302044300A002020B5
:101090004D3230302044002044697361626C6564D5
:1010A0000A0046696C616D656E74207365747469BD
:1010B0006E67733A0020286D6D2900202047323179
:1010C000202020203B20556E69747320696E206DAE
:1010D0006D006F70656E0054524947474552454454
:1010E000003A200066696C616D656E74007A5F6D10
:1010F000696E00795F6D696E00785F6D696E005290
:1011000065706F7274696E6720656E6473746F705A
:10111000207374617475730A00486F6D696E67207F
:101120004661696C6564000000000000000000007A
:1011300000000000002042000020420000804057D4
:1011400061726E696E673A20486F6D696E67204202
:10115000756D702044697669736F72203C20310A86
:10116000000404040000A0400000A0400000004073
:1011700000005C4300005C4300007A43FFFFFF2057
:101180006C696D6974656420746F2000204D61780E
:1011900020004A65726B0024F4D43050C38E20C204
:1011A000A24017828B7011127A910D816CD90AA816
:1011B00061E108C7586607615143061E4B5D05C1D2
:1011C00045A7041A411104093D98037139310340C0
:1011D00036DB0265339102D4305402802E1D026347
:1011E0002CEE01752AC501B028A001102781018FBE
:1011F0002564012B244B01E0223401AC211F018D19
:10120000200D01801FFC00841EED00971DDF00B83B
:101210001CD200E61BC600201BBC00641AB200B240
:1012200019A8000A19A0006A189900D11791004066
:10123000178B00B516840031167E00B31579003A7D
:10124000157300C7146F0058146A00EE1366008807
:1012500013630025135E00C7125B006C1257001564
:10126000125400C111510070114F0021114B00D6D2
:101270001049008D1047004610440002104200C083
:101280000F4000800F3E00420F3C00060F3B00CB9A
:101290000E3800930E37005C0E3500270E3400F335
:1012A0000D3200C10D3100900D3000600D2E003266
:1012B0000D2D00050D2C00D90C2B00AE0C2900853E
:1012C0000C29005C0C2700350C27000E0C2600E8CA
:1012D0000B2400C40B2400A00B23007D0B23005A19
:1012E0000B2100390B2100180B2000F80A1F00D930
:1012F0000A1E00BB0A1E009D0A1D00800A1D006315
:101300000A1C00470A1B002C0A1B00110A1A00F7CE
:10131000091A00DD091900C4091900AB0919009266
:101320000917007B091800630917004C09160036DD
:10133000091600200916000A091500F5081500E035
:10134000081400CC081400B8081400A40814009075
:101350000813007D0812006B08130058081200469D
:1013600008120034081100230811001208110001AE
:10137000081100F0071000E0071000D0071000C0AF
:10138000071000B0070F00A107100091070E00839F
:10139000070F0074070F0065070E0057070E00497E
:1013A000070E003B070D002E070E0020070D00134F
:1013B000070D0006070D00F9060C00ED060D00E014
:1013C000060C00D4060C00C8060C00BC060C00B0CD
:1013D000060C00A4060B0099060C008D060B00827B
:1013E000060B0077060B006C060B0061060A00571F
:1013F000060B004C060A0042060A0038060A002EB8
:10140000060A0024060A001A060A00100609000748
:10141000060A00FD050900F4050900EB050900E2D4
:10142000050900D9050900D0050900C7050900BE56
:10143000050900B5050800AD050800A50509009CD3
:10144000050800940508008C050800840508007C48
:10145000050800740508006C050700650508005DB7
:10146000050700560508004E050700470507004020
:1014700005080038050700310507002A0507002385
:101480000507001C050600160507000F05070008E4
:1014900005060002050700FB040600F5040700EE40
:1014A000040600E8040600E2040700DB040600D599
:1014B000040600CF040600C9040600C3040600BDEC
:1014C000040600B7040600B1040500AC040600A63B
:1014D000040600A00405009B040600950405009086
:1014E0000406008A04050085040500800406007ACD
:1014F00004050075040500700405006B0405006612
:10150000040500610405005C040500570405005251
:101510000405004D04050048040500430405003E91
:101520000404003A04050035040500300404002CCE
:1015300004050027040400230405001E0404001A07
:1015400004040016040500110404000D040400093D
:101550000405000404040000040400FC030400F873
:10156000030400F4030400F0030400EC030400E8A7
:10157000030400E4030400E0030400DC030400D8D7
:10158000030400D4030400D0030400CC030400C807
:10159000030300C503030024F404D9201BC40C5C1E
:1015A0000E9804C4095F0265077101F405F900FB98
:1015B00004B30048048700C10369005803550003C1
:1015C000034500BE023A008402310053022A00297A
:1015D00002250004022000E4011C00C8011900AF2C
:1015E00001170098011400840113007101100061BB
:1015F00001100051010E0043010D0036010B002BBC
:10160000010B0020010B00150109000C010900036A
:10161000010800FB000800F3000800EB000700E4ED
:10162000000600DE000600D8000600D2000600CC4E
:10163000000500C7000500C2000500BD000400B998
:10164000000400B5000400B1000400AD000400A9CE
:10165000000400A5000300A20003009F0004009BFB
:10166000000300980003009500020093000300901F
:101670000003008D0002008B00030088000200863A
:1016800000020084000300810002007F0002007D50
:101690000002007B00020079000200770001007662
:1016A0000002007400020072000100710002006F6D
:1016B0000002006D0001006C0002006A0001006978
:1016C000000200670001006600010065000100647F
:1016D0000002006200010061000100600001005F83
:1016E0000002005D0001005C0001005B0001005A87
:1016F0000001005900010058000100570001005688
:101700000001005500010054000100530000005387
:101710000001005200010051000100500001004F83
:101720000001004E0000004E0001004D0001004C81
:101730000001004B0000004B0001004A000100497D
:101740000001004800000048000100470001004679
:101750000000004600010045000000450001004473
:10176000000100430000004300010042000000426D
:101770000001004100000041000100400001003F65
:101780000000003F0001003E0000003E0001003D5F
:101790000000003D0001003C0000003C0000003C57
:1017A0000001003B0000003B0001003A0000003A4D
:1017B0000001003900000039000100380000003845
:1017C000000000380001003700000037000100363B
:1017D0000000003600000036000100350000003532
:1017E0000000003500010034000000340000003427
:1017F000000100330000003300000033000100321C
:101800000000003200000032000100310000003111
:101810000000003100010030000000300000003006
:101820000001002F0000002F0000002F0000002FFB
:101830000001002E0000002E0000002E0001002DEF
:101840000000002D0000002D0000002D0001002CE4
:101850000000002C0000002C0000002C0001002BD8
:101860000000002B0000002B0000002B0001002ACC
:101870000000002A0000002A0000002A00010029C0
:1018800000000029000000290000002900000029B4
:1018900000010028000000280000002800000028A7
:1018A000000000280001002700000027000000279A
:1018B000000000270000002700010026000000268D
:1018C0000000002600000026000000260001002580
:1018D0000000002500000025000000250000002574
:1018E0000000002500010024000000240000002466
:1018F0000000002400000024000100230000002359
:10190000000000230000002300000023000000234B
:10191000000000230001002200000022000000223D
:10192000000000220000002200000022000100212F
:101930000000002100000021000000210000002123
:101940000000002100000021000100200000002014
:101950000000002000000020000000200000002007
:1019600000000020000000200001001F0000001FF8
:101970000000001F0000001F0000001F0000001FEB
:101980000000001F0001001E0000001E0000001EDD
:101990000000001E000000043700001E2900005156
:1019A0001B00005810000010090000CC0400007853
:1019B0000200004101000020436F756E7420583A08
:1019C0000042656400453100626564002C20737933
:1019D0007374656D2073746F707065642120486541
:1019E000617465725F49443A200048656174696EAC
:1019F00067204661696C65640048656174696E675B
:101A0000206661696C656400544845524D414C2024
:101A100052554E4157415900546865726D616C20B2
:101A200052756E61776179004572723A204D415866
:101A300054454D50004D415854454D5020747269E5
:101A4000676765726564004572723A204D494E546D
:101A5000454D50004D494E54454D502074726967B4
:101A60006765726564004D383420582059205A202B
:101A70004500202F002042403A0020403A007C3CA4
:101A80003E5E2B3D3F2F5B5D3B2C2A225C007001AC
:101A90002C0190012701B0012201C0011D01F001BC
:101AA00018011002130130020E01600209019002B8
:101AB0000401C002FF000003FA004003F5008003A8
:101AC000F000D003EB002004E6007004E100E00425
:101AD000DC004005D700C005D2004006CD00D0068E
:101AE000C8008007C3003008BE00F008B900C00974
:101AF000B400B00AAF00B00BAA00D00CA500000ED5
:101B0000A000500F9B00C0109600501291000014CE
:101B10008C00C0158700B0178200B0197D00D01B63
:101B20007800001E730040206E0090226900F024AF
:101B3000640040275F0090295A00E02B5500102ECA
:101B4000500020304B0010324600E0334100903509
:101B50003C001037370070383200A0392D00B03A01
:101B60002800A03B2300603C1E00103D1900903D62
:101B70001400103E0F00703E0A00C03E0500003FFA
:101B80000000403FFBFF803FF6FFC03FF1FF436195
:101B90006E6E6F74206F70656E207375626469720B
:101BA000200053442063617264206F6B0A006F70E1
:101BB000656E526F6F74206661696C65640A0076A9
:101BC0006F6C756D652E696E6974206661696C65F0
:101BD000640A00534420696E6974206661696C0A66
:101BE000004D3234004D32332025730046696C6558
:101BF0002073656C65637465640A002053697A65B7
:101C00003A200046696C65206F70656E65643A2005
:101C100000454E4420535542524F5554494E450AB3
:101C2000002220706F73002220706172656E743A1A
:101C30002200535542524F5554494E452043414C82
:101C40004C207461726765743A2200747279696E0F
:101C50006720746F2063616C6C207375622D6763FD
:101C60006F64652066696C65732077697468207499
:101C70006F6F206D616E79206C6576656C732E20B8
:101C80004D4158206C6576656C2069733A310A00C5
:101C90002E0A006F70656E206661696C65642C2089
:101CA00046696C653A20002E0A0044656C657469CB
:101CB0006F6E206661696C65642C2046696C653ABC
:101CC000200046696C652064656C657465643A0043
:101CD0002E0A006F70656E206661696C65642C2049
:101CE00046696C653A200057726974696E672074A2
:101CF0006F2066696C653A200066726573680064DF
:101D00006F696E67002066696C653A20004E6F77D8
:101D100020002C207573652064656661756C7420E5
:101D20004457494E2054350A00756E6B6E6F776EBE
:101D3000004457494E2054354C0A004A580A004482
:101D400057494E2054350A00446574656374207405
:101D50006F7563682073637265656E3A20004D315C
:101D60003030302053002020506C616E6E6572421E
:101D7000756666657242797465733A200020467212
:101D80006565204D656D6F72793A2000436F6D7007
:101D9000696C65643A204A756C20333120323032E8
:101DA000340A00204C61737420557064617465645A
:101DB0003A20323032322D30322D3138207C2041E1
:101DC0007574686F723A204C6F6E67657233442C7D
:101DD00020486F62692C2074707275766F740A00E7
:101DE000302E342E302D4D61726C696E322E780A91
:101DF000004D61726C696E0020536F66747761727A
:101E0000652052657365740A0020576174636864C5
:101E10006F672052657365740A002042726F776E97
:101E2000206F75742052657365740A0020457874BC
:101E300065726E616C2052657365740A00506F772D
:101E4000657255700A0073746172740A004D323005
:101E500030300047323820583000473930004731A1
:101E6000205A313000473931006175746F25632E77
:101E70006700473238580A4D383400446F6E652089
:101E80007072696E74696E672066696C650A004DD0
:101E90003737004D3331006572726F722077726987
:101EA00074696E6720746F2066696C650A00446F00
:101EB0006E6520736176696E672066696C652E0AAF
:101EC000004D323900205A3A0020593A0020583A41
:101ED00000656E6473746F7073206869743A2000D3
:101EE00000002100240027002A002D0030003300CC
:101EF00001010000040107010A0100002200250081
:101F000028002B002E0031003400020100000501E2
:101F100008010B01000020002300260029002C00EE
:101F20002F00320000010000030106010901050530
:101F30000505070508080808020202020A0A08083F
:101F4000040404040101010101010101030303036D
:101F500003030303040707070C0C0C0C0C0C0C0CFC
:101F60000202020206060606060606060B0B0B0B0D
:101F70000B0B0B0B01021020200808102040102032
:101F8000408002010201080402010102040810203D
:101F9000408080402010080402018004020180403B
:101FA00020100804020108040201010204081020A4
:101FB0004080010204081020408000000A0B020942
:101FC0000C0D0E08070304010000000000000000D3
:101FD0000000000000000000000000000000000001
:101FE00000000000000012111000000000000000BE
:101FF00000000000000000000000000000000000E1
:10200000486F6D65202573257325732046697273AB
:102010007400220A00556E6B6E6F776E20636F6DD1
:102020006D616E643A202200204500205A0020593C
:1020300000204D39322058004731205A3130204697
:10204000353030004731205A302046333030004799
:10205000312058313130205931313020463530303F
:1020600030004731205A3130204635303000473279
:102070003800473930004731205A3020463330305D
:10208000004731205833302059313930204635301F
:102090003030004731205A3130204635303000474B
:1020A000323800473930004731205A30204633302B
:1020B00030004731205831393020593139302046ED
:1020C00035303030004731205A31302046353030FD
:1020D0000047323800473930004731205A30204617
:1020E00033303000473120583139302059333020D7
:1020F0004635303030004731205A313020463530B7
:10210000300047323800473930004731205A3020FC
:102110004633303000473120583330205933302097
:102120004635303030004731205A31302046353086
:10213000300047323800473930004D313030300000
:102140004D32303036004D313039205325690A4D3B
:1021500032303035004D32303035004D313039209D
:10216000532569004D32303035004D323030350066
:102170004D313039205325690A4D32303034004D0D
:1021800032303034004D31303920532569004D3222
:10219000303034004D32303034004D323030310088
:1021A0004D323500473238205A300A4D32303038FF
:1021B000004732382058302059300A4D32303038FC
:1021C00000256C75206820256C75206D00256875CC
:1021D0003A25303268750025303268753A2530323C
:1021E00068750020746F6F206C6F6E67206578745F
:1021F000727573696F6E2070726576656E74656452
:102200000A0020636F6C6420657874727573696F5F
:102210006E2070726576656E7465640A002E0A0021
:102220006F70656E206661696C65642C2046696C10
:10223000653A200020453A00205A3A0020593A00D9
:10224000583A000040A722A711241FBECFEFD1E2C9
:10225000DEBFCDBF00E00CBF14E0A0E0B2E0E6EBD3
:10226000FAE701E00BBF02C007900D92A430B1075E
:10227000D9F726E1A4E0B4E001C01D92AB3BB20760
:10228000E1F711E1C3E2D1E100E006C021970109C5
:10229000802FFE010E94C2BCC232D10780E0080735
:1022A000A9F70E941FA80C9449BD0C9400008091CE
:1022B000E2129091E3128635910554F481E0209169
:1022C000360B3091370B263031051CF480E0089531
:1022D00081E00895AF92BF92CF92DF92EF92FF928A
:1022E0000F931F93CF93DF93C3E6D0E10AE81BE07F
:1022F00083E7A82E80E1B82EC12CD12C7601C3949F
:1023000069917991899199910E94CAB228893989F4
:102310004A895B890E942BB30E94FBBAF801619342
:102320007193819391938F01C616D706E806F9063B
:1023300010F46B017C01AC16BD0611F76FEF7FEF57
:10234000CB01A70196010E942CB920939A0B3093E0
:102350009B0B40939C0B50939D0BDF91CF911F9152
:102360000F91FF90EF90DF90CF90BF90AF900895C6
:10237000CF92DF92EF92FF9280917705882309F444
:1023800057C0C0907C05D0907D05E0907E05F09010
:102390007F0520E030E0A901C701B6010E94C5B267
:1023A000882309F445C020E030E040E05FE3C70146
:1023B000B6010E942BB39B01AC010E942BB32BED05
:1023C0003FE049E450E40E942BB39B01AC0160E084
:1023D00070E080E89FE30E9482BA6B017C01C092AA
:1023E0007805D0927905E0927A05F0927B056091AC
:1023F0003F0270914002072E000C880B990B0E943F
:10240000CCB22AE037ED43E25CE30E942BB3A70194
:1024100096010E942BB36093430270934402809311
:10242000450290934602FF90EF90DF90CF90089581
:10243000C12CD12C80E8E82E8FE3F82ED0CF8091EC
:10244000101390911113891B8F7019F490E080E0A4
:10245000089590910D13992351F0833030F48FEF4C
:10246000890F19F080930D13F1CF10920D13809105
:1024700011132BE4829FC00111248055944FFC015D
:10248000208120FDE3CF209111132F5F2F70209327
:102490000E133091111320910F13321304C02091A9
:1024A0000E1320930F13089590916F0081E091FD1A
:1024B00002C080E0089590916F009D7F90936F001F
:1024C0000895CF93DF9324E0829FC0011124EC0193
:1024D000CF5FDC4EFC01E755F94F85599A4FDC017F
:1024E0002D913D914D915C916081718182819381AB
:1024F0000E9488B9688379838A839B83DF91CF9117
:102500000895CF92DF92EF92FF921F93CF93DF93C4
:1025100020911E02222309F48DC0EC011091A80A1B
:1025200010FF2CC0C0900602D0900702E090080275
:10253000F0900902288139814A815B81C701B60187
:102540000E94E8BB181624F4C882D982EA82FB8272
:10255000C0901202D0901302E0901402F090150285
:10256000288139814A815B81C701B6010E94C5B2C9
:1025700087FF04C0C882D982EA82FB8211FF2CC087
:10258000C0900A02D0900B02E0900C02F0900D0275
:102590002C813D814E815F81C701B6010E94E8BB5D
:1025A000181624F4CC82DD82EE82FF82C0901602DF
:1025B000D0901702E0901802F09019022C813D8112
:1025C0004E815F81C701B6010E94C5B287FF04C07A
:1025D000CC82DD82EE82FF8212FF2CC0C0900E0200
:1025E000D0900F02E0901002F090110228853985FA
:1025F0004A855B85C701B6010E94E8BB181624F422
:10260000C886D986EA86FB86C0901A02D0901B0243
:10261000E0901C02F0901D02288539854A855B8573
:10262000C701B6010E94C5B287FF04C0C886D9861B
:10263000EA86FB86DF91CF911F91FF90EF90DF90AC
:10264000CF900895CF93DF93FB01D9019081913012
:10265000E9F09430A8F0945090832D913C9111971B
:10266000B9016F5F7F4F11967C936E93420F531F9A
:10267000EA0188838D919C918F35910564F406C0A1
:102680008C3539F49C5F9083943039F7DF91CF918A
:1026900008958B3311F781E08083F8CF9091C704C0
:1026A000292F30E0F901E756FC4E8083220F331FBB
:1026B000220F331FF901E75AF44F4091C3045091A0
:1026C000C4046091C5047091C60440835183628341
:1026D00073839F5F983040F49093C7048091B6094C
:1026E0008F5F8093B60908951092C704F7CF282F03
:1026F00090919D04833021F495FD0FC094FD0FC08F
:10270000892F90E0B0E0A0E004C0B695A79597951A
:1027100087952A95D2F78170089581E0089580E029
:1027200008952FEB280F2A3108F042C0E22FF0E085
:102730008091B9049091BA04A091BB04B091BC04FB
:1027400004C0B695A795979587952A95D2F780FDF1
:1027500002C081700895E156FB4FE081EE2329F11C
:102760008091B9099091BA09E80FF92FF11D808184
:1027700090ED980F9A3030F08E3251F48181805371
:102780008A3098F4F0939B04E0939A0481E00895D2
:102790008D3211F08B3249F4818190ED980F9A308F
:1027A00088F38E3211F48281EACFF0E0E0E0EACFE4
:1027B00080E00895129A08955F9A8091A70A8E7F0B
:1027C0008093A70A8A9A8091A70A8D7F8093A70A8F
:1027D0008091080180958170809306018091A70AFD
:1027E0008B7F8093A70A0C94DA13AB01BC01409352
:1027F000A7135093A8136093A9137093AA1382EEA2
:1028000093E10C94AE91CF92DF92EF92FF920F93EF
:102810001F93C12CD12C76018C012DEF32E149EFB1
:1028200052E165EF72E181EF92E10E9435881F91DC
:102830000F91FF90EF90DF90CF900895EF92FF926D
:102840000F931F93CF93DF938C01EB010E944BB248
:102850007C01CE010E944BB2AC018E159F0589F41C
:1028600030E020E042175307A1F0F801E20FF31F18
:102870009491FE01E20FF31FE4912F5F3F4F9E17EB
:1028800089F380E0DF91CF911F910F91FF90EF903E
:10289000089581E0F7CFFF920F931F93CF93DF93BB
:1028A0001F92CDB7DEB7F82E05E414E041E050E00A
:1028B000B801CE0101960E9437B289818F1108C0FC
:1028C00081E00F90DF91CF911F910F91FF900895BC
:1028D0000F5F1F4F84E00D35180741F780E0F1CFFF
:1028E000CF93FC0120812B33B1F02091B609283021
:1028F00090F4C62FBC018091C704F0E68F9FC00101
:1029000011248B54994F0E941ABD8C2F0E944E1394
:1029100081E0CF91089580E0FCCF80919A0490915E
:102920009B04009731F04AE050E070E060E00C94C6
:10293000FDAF60E070E0CB0108950F931F93CF933C
:1029400080919A0490919B040097E9F0FC018F011B
:10295000C1912C2F2F7D81F0C53411F0C536B9F708
:10296000F801108270E060E00E949FAEF801C08321
:10297000CF911F910F91089570E060E0CF911F916A
:102980000F910C949FAE60E070E0CB01F1CF86E434
:102990000E94911380932B06882351F00E949D146E
:1029A00060932702709328028093290290932A0251
:1029B00083E50E949113882351F00E949D14609337
:1029C000230270932402809325029093260282E4CE
:1029D0000E949113882351F00E949D1460931F025E
:1029E00070932002809321029093220208958F9287
:1029F0009F92AF92BF92CF92DF92EF92FF920F938E
:102A0000CF93DF931F92CDB7DEB75C017B01490105
:102A10006B01C40ED51EF501808191810E94E3B83F
:102A20008983002311F0F7018083BE016F5F7F4F20
:102A3000C4010E94B878F50180819181019691834B
:102A40008083FFEFEF1AFF0AEC14FD0421F780E00A
:102A50000F90DF91CF910F91FF90EF90DF90CF908B
:102A6000BF90AF909F908F9008950F931F93CF9337
:102A7000DF93FC012381222331F080E0DF91CF91AD
:102A80001F910F9108958B01EC01FB018789803123
:102A900039F582E08B831D8A1E8A1F8A188E808DED
:102AA000918DB0E0A0E025E0880F991FAA1FBB1F01
:102AB0002A95D1F7898B9A8BAB8BBC8B1A8F098F98
:102AC00081E08983188619861A861B861C821D82DE
:102AD0001E821F82188A1C861D861E861F86CECFE8
:102AE000803259F683E08B83428D538D648D758DD2
:102AF0004D8B5E8B6F8B788F9E012F5E3F4FC80191
:102B00000E94F8908111DACFB8CFCF93DF93EC0118
:102B10000E9462911B82DF91CF910895CF93DF9342
:102B2000EC01462F41706C857D858E859F850E94C6
:102B3000348D882351F0888920E2829FC0011124BE
:102B40008F549F4EDF91CF91089590E080E0FACFAF
:102B5000CF93DF93EB01FC012381211104C080E0BE
:102B6000DF91CF9108952250223028F48FE288839C
:102B7000198281E0F5CF60E00E948E15009779F30D
:102B8000DC0160E080E09EE22D91203299F08830F7
:102B900031F49E01260F311DF90190836F5F9E0174
:102BA000260F311DAD0141505109FA014081F90153
:102BB00040836F5F8F5F8B3039F7FE01E60FF11DA9
:102BC0001082D7CF3F924F925F926F927F928F92F7
:102BD0009F92AF92BF92CF92DF92EF92FF920F93AC
:102BE0001F93CF93DF93CDB7DEB72C970FB6F89432
:102BF000DEBF0FBECDBF5C01DC0159968D909C906D
:102C0000F40181859285A385B4859C01AD012F5F78
:102C10003F4F4F4F5F4F29873A874B875C87D501DE
:102C200014964D905D906D907C90179741145104CF
:102C30006104710409F459C0BFEF4B1A5B0A6B0AB7
:102C40007B0A312C730162011D821E821F8218864D
:102C5000F40181859285A385B4852D813E814F81C4
:102C60005885281739074A075B0708F056C0898539
:102C70009A85AB85BC858C159D05AE05BF0550F4C6
:102C800082E0C82ED12CE12CF12C92E0492E512C5F
:102C9000612C712C9E012F5F3F4FB701A601C4012B
:102CA0000E9475908823C9F189819A81AB81BC818A
:102CB000892B8A2B8B2B01F1260137019FEF491AB3
:102CC000590A690A790A2D813E814F8158852F5F03
:102CD0003F4F4F4F5F4F2D833E834F8358873FEFCA
:102CE000C31AD30AE30AF30AB3CF4080518062804B
:102CF000738033243394A6CFC414D504E604F704B8
:102D000011F70FEF1FEF2FEF3FE0B701A601C4014E
:102D10000E94E38F782E81111AC0712C872D2C967A
:102D20000FB6F894DEBF0FBECDBFDF91CF911F91DC
:102D30000F91FF90EF90DF90CF90BF90AF909F905A
:102D40008F907F906F905F904F903F900895F50126
:102D50004481558166817781411551056105710571
:102D600039F097018601C4010E94E38F8823A9F2FC
:102D7000D5011496CD92DD92ED92FC9217973320F7
:102D800051F0D701C6010196A11DB11DF401808348
:102D90009183A283B383F50185899689A789B08D34
:102DA000892B8A2B8B2B09F0B9CFC58AD68AE78A63
:102DB000F08E818180688183B1CF40E050E0BA011C
:102DC0000C94AE910F930FB70F9300916E000B7F91
:102DD00000936E0078940F930BB70F930CB70F927C
:102DE0001F922F933F934F935F936F937F938F9394
:102DF0009F93AF93BF93EF93FF9311240E941830DA
:102E0000FF91EF91BF91AF919F918F917F916F91C2
:102E10005F914F913F912F911F900F900CBF0F9199
:102E20000BBF0F910460F89400936E000F910FBFD9
:102E30000F9118958F929F92AF92BF92CF92DF928F
:102E4000EF92FF920F931F93CF93DF93B0E4A0E034
:102E50006A2F70E0AB014B0F511D559547954111FD
:102E600019C0E0E9FAE165917491072E000C880B16
:102E7000990B0E94CCB2DF91CF911F910F91FF90DF
:102E8000EF90DF90CF90BF90AF909F908F9008957C
:102E9000B42FE0CFA41711F0B41303C0ECE8FBE1AA
:102EA000E2CF9A0121503109220F331F220F331F25
:102EB000F901E257F54EE590F490F901EE56F54E22
:102EC000C591D4918E159F051CF3A42FC817D9075F
:102ED0000CF4BECFF901E057F54E05911491F901BC
:102EE000EC56F54EC590D490BC016E197F09072EA3
:102EF000000C880B990B0E94CCB24B015C01B6010F
:102F0000601B710B072E000C880B990B0E94CCB232
:102F10009B01AC01C501B4010E942BB34B015C01C4
:102F2000BE016E197F09072E000C880B990B0E94B9
:102F3000CCB29B01AC01C501B4010E9482BA6B0105
:102F40007C01B801110F880B990B0E94CCB29B0138
:102F5000AC01C701B6010E9488B98DCFCF93DF9332
:102F6000CAEDD2E18A819B810E943E7A6C837D8387
:102F70008E839F83CEE2DBE08A819B810E941A17B9
:102F80006C837D838E839F83A89510922C06DF919E
:102F9000CF910895BC012091CA053091CB05409195
:102FA000CA055091CB052417350731F481E0261767
:102FB000370709F080E008959A01F1CF0F930FB71A
:102FC0000F9300916E000F930B7F00936E000091A2
:102FD0006F000D7F00936F000F930BB70F930CB72B
:102FE0000F921F922F933F934F935F936F937F9313
:102FF0008F939F93AF93BF93EF93FF9311240E94FE
:10300000E41AFF91EF91BF91AF919F918F917F91C2
:103010006F915F914F913F912F911F900F900CBF37
:103020000F910BBF0F910260F89400936F000F9106
:1030300000936E000F910FBF0F91189500000000D4
:1030400000008091A50680FF2BC0899A8FEF8093A6
:1030500080058091A506869580FF25C08F988FEF0B
:10306000809381058091A5068695869580FF1EC078
:1030700080910B0180958270809309018FEF80937E
:1030800082058091A50686958695869580FF15C058
:10309000169A8FEF809383050000000000000895CA
:1030A000899881E0D4CF8F9A81E0DACF80910B01AB
:1030B00082708093090181E0E2CF169881E0EACF27
:1030C00021E02093D31220914F02309150022F50D3
:1030D0003109821793070CF49C013093E31220937B
:1030E000E2120C94808B4F925F926F927F928F923C
:1030F0009F92AF92BF92CF92DF92EF92FF920F9387
:103100001F93CF93DF93CDB7DEB76A970FB6F894CE
:10311000DEBF0FBECDBF9A8F898F5B018A01DC01B4
:10312000D6966D917D918D919C91D9970E94CAB24E
:103130006B017C01F50120813181428153810E9424
:103140002BB30E9466BA2B013C01D8012D913D9111
:103150004D915C91C701B6010E942BB30E9466BAE3
:103160004B015C01C301B2010E94FBBA698B7A8BEF
:103170008B8B9C8B683771058105910540F428E79E
:1031800030E040E050E0298B3A8B4B8B5C8BC501E3
:10319000B4010E94FBBA6D877E878F87988B683752
:1031A00071058105910540F488E790E0A0E0B0E06A
:1031B0008D879E87AF87B88BE98DFA8DEE5BFF4FC9
:1031C000208131814281538129833A834B835C83FF
:1031D000CA01B9010E94CCB22B013C0169897A89EC
:1031E0008B899C890E94CAB269877A878B879C8762
:1031F00020E030E0A901C301B2010E94C5B28823DA
:1032000009F43BC1A7019601C701B6010E942BB387
:103210004B015C0129853A854B855C85CA01B90162
:103220000E942BB39B01AC01C501B4010E9487B978
:103230004B015C01A3019201C301B2010E9488B954
:103240009B01AC01C501B4010E9482BA0E9466BA1A
:103250000E94FBBA6D837E838F83988769817A8110
:103260008B819C8190958095709561957F4F8F4F54
:103270009F4F0E94CCB24B015C016D857E858F858E
:1032800098890E94CAB269837A838B839C8320E0E9
:1032900030E0A901C501B4010E94C5B2882309F438
:1032A000F0C029813A814B815C81CA01B9010E9439
:1032B0002BB36D8B7E8B8F8B988FA7019601C701E7
:1032C000B6010E942BB39B01AC016D897E898F8969
:1032D000988D0E9487B96B017C01A5019401C501FD
:1032E000B4010E9488B99B01AC01C701B6010E94DC
:1032F00082BA0E942ABBA98DBA8D95968D909D9019
:10330000AD90BC909897750164012D813E814F81ED
:103310005885C21AD30AE40AF50A0E94FBBAC61AF3
:10332000D70AE80AF90AF7FE6EC020E030E0A901EA
:10333000C301B2010E94C5B2882309F4A6C0C50129
:10334000B4010E94CAB26B017C01A3019201C301C6
:10335000B2010E9488B99B01AC01C701B6010E946D
:103360002BB36B017C0129853A854B855C85CA01AD
:10337000B9010E942BB39B01AC01C701B6010E94A9
:1033800087B96B017C0129813A814B815C81CA013B
:10339000B9010E942BB39B01AC01C701B6010E9489
:1033A00088B96B017C0120E030E040E850E4C301C3
:1033B000B2010E942BB39B01AC01C701B6010E9470
:1033C00082BA0E9466BA6B017C0120E030E0A9015C
:1033D0000E94E8BB18161CF0C12CD12C7601C70145
:1033E000B6010E94FBBA6D837E838F839887861611
:1033F0009706A806B90620F48D829E82AF82B88611
:10340000C12CD12C76018D819E81AF81B885E98D4B
:10341000FA8D81A792A7A3A7B4A7C80ED91EEA1E4A
:10342000FB1EC5A6D6A6E7A6F0AA29893A894B892C
:103430005C8922AF33AF44AF55AFFE962D853E85F4
:103440004F85588920833183428353836A960FB610
:10345000F894DEBF0FBECDBFDF91CF911F910F91CA
:10346000FF90EF90DF90CF90BF90AF909F908F90A4
:103470007F906F905F904F90089560E070E0CB0177
:10348000E5CE60E070E0CB0134CF60E070E0CB01CE
:1034900098CFEFE6F0E08081826080830895CF933B
:1034A000C82F0E94541294E0C99F90011124F90181
:1034B000E353FA4F27523A4FD9014D915D916D91E7
:1034C0007C91408351836283738391E09093CC0518
:1034D000882319F0CF910C94491ACF910895CF9277
:1034E000DF92EF92FF9280916A05659962C08160D8
:1034F00080936A059091030180916A0591FD5BC0FC
:10350000826080936A0580916A05329956C0846012
:1035100080936A05C090BD05C0FE10C08091A506CD
:1035200080FF0CC080916A0580FF08C08091B709B8
:1035300081608093B70980E00E944F1AD12CF12C52
:10354000E12CD701C601B695A7959795879580FF81
:1035500011C08091A506869580FF0CC080916A05F8
:1035600081FF08C08091B70982608093B70981E02C
:103570000E944F1A82E0F694E794D794C7948A95F4
:10358000D1F7C0FE1CC08091A5068695869580FF68
:1035900016C080916A0582FF12C08091B7098460CD
:1035A0008093B70982E0FF90EF90DF90CF900C946A
:1035B0004F1A8E7F9DCF8D7FA4CF8B7FA9CFFF9099
:1035C000EF90DF90CF9008952F923F924F925F92AD
:1035D0006F927F928F929F92AF92BF92CF92DF9223
:1035E000EF92FF920F931F93CF93DF9300D0CDB74D
:1035F000DEB78FEF9FEF90938900809388000AE0F9
:103600000983312C212C78948091C6059091C705AF
:10361000A091C805B091C905892B8A2B8B2B09F085
:10362000CDC18091CC058823D1F08091CA059091BD
:10363000CB051092CC05892B91F01092BD0510920C
:10364000CB051092CA059091101380911113981711
:1036500031F0809111138F5F8F70809311138091DF
:10366000CA059091CB05892B09F4A8C14091C205E8
:103670005091C3056091C4057091C5058091BE0548
:103680009091BF05A091C005B091C1050091B00512
:1036900010E030E020E0841B950BA60BB70B081759
:1036A00019072A073B0710F4D901C8018A83840F40
:1036B000951FA61FB71F8093C2059093C305A093C3
:1036C000C405B093C505E1E0C0908805D090890598
:1036D000E0908A05F0908B0580919805909199056E
:1036E000A0919A05B0919B05C80ED91EEA1EFB1E3B
:1036F000C0929805D0929905E0929A05F0929B05A8
:10370000F7FC33C080918005082E000C990BAA0BA2
:10371000BB0B4091D9055091DA056091DB057091A2
:10372000DC05840F951FA61FB71F8093D9059093C2
:10373000DA05A093DB05B093DC05809184059091B8
:103740008505A0918605B0918705A7019601281BE4
:10375000390B4A0B5B0BDA01C901809398059093F2
:103760009905A0939A05B0939B0500918C05109143
:103770008D0520918E0530918F0580919C0590914B
:103780009D05A0919E05B0919F05080F191F2A1F46
:103790003B1F00939C0510939D0520939E0530933D
:1037A0009F0537FD33C080918105082E000C990BD1
:1037B000AA0BBB0B4091DD055091DE056091DF0542
:1037C0007091E005840F951FA61FB71F8093DD053C
:1037D0009093DE05A093DF05B093E005809184050A
:1037E00090918505A0918605B0918705B901A80142
:1037F000481B590B6A0B7B0BDB01CA0180939C05AC
:1038000090939D05A0939E05B0939F0540919005D0
:103810005091910560919205709193058091A0055A
:103820009091A105A091A205B091A305480F591F41
:103830006A1F7B1F4093A0055093A1056093A205CA
:103840007093A30577FD33C080918205082E000C8C
:10385000990BAA0BBB0B8090E1059090E205A0901C
:10386000E305B090E405880D991DAA1DBB1D80934A
:10387000E1059093E205A093E305B093E405809100
:10388000840590918505A0918605B09187052A0150
:103890003B01481A590A6A0A7B0AD301C201809384
:1038A000A0059093A105A093A205B093A3058090D5
:1038B000940590909505A0909605B09097058091FD
:1038C000A4059091A505A091A605B091A705880D26
:1038D000991DAA1DBB1D8093A4059093A505A093D7
:1038E000A605B093A705B7FD33C040908305042C0F
:1038F000000C5508660877088090E5059090E6056D
:10390000A090E705B090E805840C951CA61CB71C98
:103910008092E5059092E605A092E705B092E80551
:103920008090840590908505A0908605B0908705CD
:103930002C013D01481859086A087B0853014201CF
:103940008092A4059092A505A092A605B092A70525
:10395000E11104C0E0918400F0918500F7FE889A9F
:1039600037FF8E9A77FD06C0E0910B01E095E87075
:10397000E0930901B7FF149AE0918400F09185006B
:10398000E0918400F0918500F7FE889837FF8E98CB
:1039900077FD05C020910B01287020930901B7FF26
:1039A00014985A80552021F08091840090918500D0
:1039B0000A8101500A83E0E0011186CE8091C6059C
:1039C0009091C705A091C805B091C905892B8A2B94
:1039D0008B2B09F049C4E091CA05F091CB053097D3
:1039E00009F4B1C48091C2059091C305A091C405AA
:1039F000B091C5054091BE055091BF056091C005CD
:103A00007091C10584179507A607B70708F472C01F
:103A10001092BD051092CB051092CA05909110131B
:103A200080911113981709F48EC4809111138F5F40
:103A30008F708093111360EDC62E67E0D62EE12CB7
:103A4000F12C8091CA059091CB05892B09F004C413
:103A50000E941F129093CB058093CA05892B09F40D
:103A6000FBC34090CA055090CB055B824A82D201CD
:103A70008C9183FF99C2F201858D968DA78DB0A19F
:103A8000418D528D638D748D85889688A788B08C02
:103A90008092D9059092DA05A092DB05B092DC0500
:103AA0004093DD055093DE056093DF057093E005DC
:103AB0008093E1059093E205A093E305B093E405BC
:103AC00081A192A1A3A1B4A18093E5059093E605FD
:103AD000A093E705B093E80590911013809111131E
:103AE000981709F4B5CF809111138F5F8F70809371
:103AF0001113AECF4091B9055091BA056091BB0545
:103B00007091BC05481759076A077B0708F4DCC0A9
:103B10008091B5059091B605A091B705B091B80513
:103B200041A952A963A974A94424859F112D969F88
:103B30009001A69F300DA59F200D311D869F100D71
:103B4000211D341D959F100D211D341DA49F100DA6
:103B5000211D341D949F110D241D341D1695241D07
:103B6000341D789F200D311D799F300D112442ADF9
:103B700053AD64AD75AD420F531F611D711D409370
:103B8000B1055093B2056093B3057093B40506A9CF
:103B900017A920AD31AD041715072607370740F4E4
:103BA0000093B1051093B2052093B3053093B4058B
:103BB0008090B1059090B205A090B305B090B40587
:103BC00027E939E141E0F901C590D590E590F490FD
:103BD000C814D904EA04FB0470F4B694A79497942B
:103BE0008794440F2C5F3F4F53EB652E59E1752EA0
:103BF0006216730641F74093B00500E28016910407
:103C0000A104B10428F410E2812E912CA12CB12C36
:103C100020E2821A9108A108B108811438E09306C5
:103C2000A104B10408F42EC044E0949E9001112434
:103C300029563A4EF901329645915491F82DEE27C6
:103C4000F59FB001F49F610D7E1F06946E1F7E1FCD
:103C50001124AB0170E060E0F901C590D490F12C23
:103C6000E12CC41AD50AE60AF70A8C0D9D1DAE1D7B
:103C7000BF1D8093B5059093B605A093B705B0938B
:103C8000B805DFCEB501A4017695679557954795A0
:103C90009A012C7F29563E4EF901C590D490F90126
:103CA000329645915491082D0770049F9001059F0D
:103CB000300D1124F3E036952795FA95E1F7C21AF5
:103CC000D30AF12CE12CD1CF4091AC055091AD0538
:103CD0006091AE057091AF05481759076A077B07D9
:103CE00008F0D0C08091A8059091A905A091AA05DF
:103CF000B091AB0541A952A963A974A92227859F58
:103D0000312D969F8001A69F100DA59F000D111DBE
:103D1000869F300D011D121F959F300D011D121F32
:103D2000A49F300D011D121F949F310D021F121F01
:103D30003695021F121F789F000D111D799F100DDF
:103D4000112430E020E04091B1055091B20560911E
:103D5000B3057091B405FE9680809180A280B380F7
:103D6000041715072607370758F4401B510B620B41
:103D7000730B84169506A606B70610F44A015B017C
:103D800027E939E141E0F901C590D590E590F4903B
:103D9000C814D904EA04FB0460F4B694A794979479
:103DA0008794440F2C5F3F4F63EB79E162177307F1
:103DB00051F74093B00570E287169104A104B10455
:103DC00028F400E2802E912CA12CB12CE0E28E1A76
:103DD0009108A108B1088114F8E09F06A104B1047C
:103DE00008F42EC004E0909E9001112429563A4E0A
:103DF000F901329645915491F82DEE27F59FB001C7
:103E0000F49F610D7E1F06946E1F7E1F1124AB016F
:103E100070E060E0F901C590D490F12CE12CC41A57
:103E2000D50AE60AF70A8C0D9D1DAE1DBF1D8093B5
:103E3000A8059093A905A093AA05B093AB0501CE60
:103E4000B501A40176956795579547959A012C7F02
:103E500029563E4EF901C590D490F901329645910C
:103E60005491082D0770049F9001059F300D112477
:103E700013E0369527951A95E1F7C21AD30AF12C6B
:103E8000E12CD1CF80912B0290912C02A0912D0298
:103E9000B0912E02B7FF5DC0C6A8D7A8E0ACF1ACC8
:103EA00087E999E121E0FC01459155916591749173
:103EB0004C155D056E057F0558F4F694E794D7948C
:103EC000C794220F049643EB59E14817590759F755
:103ED0002093B00550E2C516D104E104F10428F4A2
:103EE00070E2C72ED12CE12CF12C60E2C61AD10869
:103EF000E108F108C11478E0D706E104F10408F400
:103F000031C0A4E0DA9EC001112489569A4EFC010A
:103F1000329625913491BC2D6627B39FA001B29FA4
:103F2000410D561F0694461F561F112470E060E095
:103F3000FC0185919491B0E0A0E0841B950BA60B49
:103F4000B70B80932B0290932C02A0932D02B09379
:103F50002E02C0902B02D0902C02E0902D02F09007
:103F60002E026FCDD701C601B695A7959795879577
:103F70008C7F89569E4EFC0125913491FC0132962E
:103F800045915491EC2DE770E49FC001E59F900DA1
:103F9000112463E0969587956A95E1F7281B390B04
:103FA000C901B0E0A0E0CDCFEA81FB81E95BFF4F22
:103FB00080819181A281B38180939C0A90939D0A14
:103FC000A0939E0AB0939F0AAA81BB8155968D90BB
:103FD0009D90AD90BC90589781E081149104A1040C
:103FE000B10409F480E0EA81FB81C18CD28CE38CBE
:103FF000F48CC114D104E104F10409F08260AA81B7
:10400000BB815D964D915D916D917C91909741152D
:1040100051056105710509F084608093BD0510921A
:10402000A8051092A9051092AA051092AB0510924E
:10403000B5051092B6051092B7051092B805EA8141
:10404000FB8185A196A1A7A1B0A58093BE05909301
:10405000BF05A093C005B093C10544245524320187
:10406000481A590A6A0A7B0A4092980550929905A3
:1040700060929A0570929B0540929C0550929D0516
:1040800060929E0570929F054092A0055092A105F6
:104090006092A2057092A3054092A4055092A505D6
:1040A0006092A6057092A70541A052A063A074A0DB
:1040B000440C551C661C771C880C991CAA1CBB1C44
:1040C0008092880590928905A0928A05B0928B050E
:1040D000CC0CDD1CEE1CFF1CC0928C05D0928D0513
:1040E000E0928E05F0928F05440F551F661F771FD3
:1040F00040939005509391056093920570939305BA
:10410000409294055092950560929605709297059D
:10411000880F991FAA1FBB1F809384059093850564
:10412000A0938605B09387051092C2051092C3052F
:104130001092C4051092C50581A592A5A3A5B4A5AA
:104140008093B9059093BA05A093BB05B093BC05C5
:1041500085A596A5A7A5B0A98093AC059093AD05BC
:10416000A093AE05B093AF0585A99091A5068917D8
:1041700021F08093A5060E941E188091A40681114B
:104180000E946F1A44244A94542C320140922B020C
:1041900050922C0260922D0270922E02AA81BB8155
:1041A000DA964D915D916D917C91DD974093B105CB
:1041B0005093B2056093B3057093B40587E999E114
:1041C00021E0FC01C590D590E590F490C416D50689
:1041D000E606F70658F47695679557954795220FAA
:1041E0000496E3EBF9E1E817F90759F72093B005D6
:1041F000403251056105710520F440E250E060E075
:1042000070E040525109610971094115F8E05F07FA
:104210006105710508F475C004E0509FC0011124C8
:1042200089569A4EFC01329625913491AA27439FD4
:10423000F001429FE10DFA1F0694EA1FFA1F1124B4
:10424000AF0170E060E0FC01C590D490F12CE12C4E
:10425000C41AD50AE60AF70AC092C605D092C70565
:10426000E092C805F092C9058091C6059091C705F6
:10427000A091C805B091C905AC01BD018F3F2FEFDA
:104280009207A105B10520F04FEF5FEF60E070E00D
:10429000841B950BA60BB70B8093C6059093C7059F
:1042A000A093C805B093C905F894809184009091BB
:1042B00085004096098101500983002309F441C01B
:1042C000240E351E2816390608F49DC9309289003F
:1042D0002092880078940F900F900F90DF91CF91EB
:1042E0001F910F91FF90EF90DF90CF90BF90AF9014
:1042F0009F908F907F906F905F904F903F902F9006
:104300000895DB01CA01B695A795979587958C7F8F
:1043100089569E4EFC01C590D490FC0132962591A1
:1043200034914770429FC001439F900D112433E0A8
:10433000969587953A95E1F7C81AD90AF12CE12CA0
:104340008BCF1C01C3CF80EDC82E87E0D82EE12C87
:10435000F12C7ECBCF92DF92EF92FF92CF93DF933F
:10436000C82F0E94541294E0C99FE0011124FE015D
:10437000E752FA4FC080D180E280F38081110E9421
:10438000491AC156D44FC701B6010E94CCB2288148
:1043900039814A815B810E942BB3DF91CF91FF90DD
:1043A000EF90DF90CF900895CF92DF92EF92FF923F
:1043B000CF93DF93C82F0E94541294E0C99FE0016D
:1043C0001124FE01E353FA4FC080D180E280F380D4
:1043D00081110E94491AC156D44FC701B6010E94EB
:1043E000CCB2288139814A815B810E942BB3DF9155
:1043F000CF91FF90EF90DF90CF9008950F931F9390
:1044000080915A05813019F50E94528B0091520516
:10441000109153052091540530915505601B710B87
:10442000820B930B28EE33E040E050E00E942CB961
:1044300060914E0570914F05809150059091510506
:10444000620F731F841F951F1F910F910895609134
:104450005605709157058091580590915905D6CF12
:104460008091FD098F5F09F483C08093FD098091DD
:10447000FD098093A40A80E1E1EFF2E1AEEFB9E03B
:1044800001900D928A95E1F78CE0E9EAF6E0AEE062
:10449000BAE001900D928A95E1F78CE0EBE6F5E049
:1044A000AAE1BAE001900D928A95E1F720E030E0B0
:1044B00040E752E460913B0270913C0280913D02E2
:1044C00090913E020E942BB30E94FBBA7093270A80
:1044D0006093260A809177058093280A882381F0CB
:1044E00080917C0590917D05A0917E05B0917F051E
:1044F0008093290A90932A0AA0932B0AB0932C0A3E
:104500008091E2129091E31290932E0A80932D0AEB
:104510008091360B9091370B9093300A80932F0A3D
:1045200080919E0B8093310A80919D048093320A82
:104530000E94FE216093A00A7093A10A8093A20AB0
:104540009093A30A80E00E94188C40E050E0BA01EA
:104550008CEA93E10E94AE9148EA50E06DEF79E079
:104560008CEA93E10E94D6928CEA93E10C94851533
:1045700081E07BCF10925A0510925205109253059C
:104580001092540510925505109256051092570539
:10459000109258051092590510924E0510924F0531
:1045A0001092500510925105089580915A0581305E
:1045B000F1F08230C9F40E94FE2160934E057093A1
:1045C0004F05809350059093510581E080935A05E3
:1045D0000E94528B6093520570935305809354054B
:1045E0009093550581E008950E94BA22EECF80E0B5
:1045F000089580915A05813079F482E080935A05BC
:104600000E94528B6093560570935705809358050E
:104610009093590581E0089580E0089580915A05AE
:104620008150823070F410925A050E94528B609330
:10463000560570935705809358059093590581E06E
:10464000089580E00895CF92DF92EF92FF920F934A
:104650001F93CF93DF93CDB7DEB764970FB6F8946F
:10466000DEBF0FBECDBF90E1E1E5F2E0DE011196C5
:1046700001900D929A95E1F79091101320911113EA
:104680009F5F9F70291749F124E0829FC001112488
:10469000E1E0F0E0EC0FFD1F8E0F9F1F20E030E007
:1046A00040E752E4FC0160817181828193810E9424
:1046B00082BA698B7A8B8B8B9C8BC12CD12C760127
:1046C0008E010F5E1F4F2DEF32E149EF52E165EF92
:1046D00072E181EF92E10E94358864960FB6F894FA
:1046E000DEBF0FBECDBFDF91CF911F910F91FF9025
:1046F000EF90DF90CF900895CF93DF93EC0181E0AE
:104700008093D312C436D1056CF184E690E0909387
:10471000370B8093360BC4E6D0E06091320B70917A
:10472000330B8091340B9091350B0E94F4BA6E5F7D
:104730007F4F24976C177D07DCF470931906609304
:1047400018060E94528B60547B428E4F9F4F60939D
:104750001A0670931B0680931C0690931D06DF912A
:10476000CF910895D093370BC093360B2097A9F6BD
:1047700010921A0610921B0610921C0610921D062B
:10478000EECF10922B060E94BB8B90E080E00E943F
:104790007C230E94BB8B1092E4122C98EEE2FBE08B
:1047A000118610861286809102018072809300012A
:1047B0000895CF92DF92EF92FF920F931F93CF93C2
:1047C000DF93CDB7DEB7EDB6FEB610E000E0FC013A
:1047D000E00FF11FE49198012F5F3F4FEE2311F09E
:1047E000EA3049F54DB75EB7421B530B0FB6F8944C
:1047F0005EBF0FBE4DBF2DB73EB72F5F3F4F690164
:10480000A801BC01C9010E9437B2F601E00FF11FF7
:10481000108260E0C6010E9470140FB6F894FEBECC
:104820000FBEEDBEDF91CF911F910F91FF90EF90E2
:10483000DF90CF9008958901CACF1092FC091092A1
:10484000FB09EBEBF9E080E4DF011D928A95E9F7C3
:1048500008951092B6091092C7041092B5090895F0
:104860008F929F92AF92BF92CF92DF92EF92FF9280
:104870000F931F93CF93DF931092BE041092BD0449
:104880002FE32093C2041092C1041092C00410922E
:10489000BF041092B9041092BA041092BB04109293
:1048A000BC049C01F90190812F5F3F4F9032D1F3FE
:1048B0009E34C9F4818190ED980F9A3020F08D32AA
:1048C00011F08B3281F432969F012F5F3F4F808130
:1048D00080538A3008F47BC09F012F5F3F4F808157
:1048E000803209F476C0F093BA09E093B9098F01D8
:1048F0000F5F1F4FC0816AE270E0C8010E9406BDD1
:10490000009731F0FC01319780818032E1F3118210
:10491000CD3429F0C43519F0C73409F04BC0F80183
:1049200080810F5F1F4F8032D1F380538A3008F0AF
:1049300041C0C093C20430E020E06AE0DF0111967C
:104940008081082E000C990BC097629FA001639F85
:10495000500D11249C01240F351F818190ED980F7B
:104960009A30C8F13093C1042093C0048E3261F4B0
:10497000329690E04AE0DF018081319650ED580F89
:104980005A3058F19093BF04CD01DC0101964C914F
:104990004032D9F3CD3489F52E31310539F01CF58B
:1049A0002731310519F02C31310539F5B093BE04AA
:1049B000A093BD04DF91CF911F910F91FF90EF90D5
:1049C000DF90CF90BF90AF909F908F900895F901A6
:1049D0007BCFF90181CFFD01B1CF8053949F800D32
:1049E0001124982FC8CF253731053CF027373105E2
:1049F000ECF2203A83E03807C9F2D091B90940E0DF
:104A000050E0BA0110E000E0C12CD12C7601C39433
:104A1000FD0131968C91882309F47FC08132E1F445
:104A2000CD34D1F420323105B9F44093B904509318
:104A3000BA046093BB047093BC04F093BE04E0938B
:104A4000BD0463E270E0CF010E9406BD009709F447
:104A5000B1CFFC011082AECF81548A3108F058C02A
:104A6000DF019D91903291F0A0EDA90FAA30E8F0FE
:104A70009E3271F4918190539A30B8F0011511056E
:104A800019F48F010150110990E013C0FD01E8CF26
:104A90009D3211F09B3291F79181A0EDA90FAA30C0
:104AA00020F09E3259F79281E6CF9E2F9D1B3097C2
:104AB00059F3A82FB0E04601570104C0880C991C97
:104AC000AA1CBB1C8A95D2F7482959296A297B2937
:104AD000A156BB4F9C9380818154DF018A3108F439
:104AE00097CFDF018191882309F492CF90ED980F41
:104AF0009A30B8F393ED980F923098F38B3289F394
:104B0000CD010196EC91E03209F082CFDC01F8CFC3
:104B10000115110501F78D01DECF1093BE0400933E
:104B2000BD044093B9045093BA046093BB047093DE
:104B3000BC0440CF0E948D1497FD0CC00E948D14C0
:104B40006F3F71058105910509F034F40E948D14C1
:104B5000862F089580E008958FEF089580919A043C
:104B600090919B04892B41F00E949A2591E081113C
:104B700001C090E0892F089591E0FCCF0E9491132D
:104B8000882341F081E020919A0430919B04232BEB
:104B900009F480E008954F925F926F927F928F9216
:104BA0009F92AF92BF92CF92DF92EF92FF921F93AC
:104BB000CF93DF9300D01F92CDB7DEB719821A8250
:104BC0001B821C82CE0101964C0185E4C82E8BE02D
:104BD000D82E91EFE92E92E1F92E21E0A22E23E1C9
:104BE000B22E10E088E5810F0E94BE25F40181936A
:104BF0004F01882309F4B4C00E949D142B013C018D
:104C0000812F0E947713882309F4A0C0F701208127
:104C1000318142815381C301B2010E9488B9F601FA
:104C200060837183828393831F5FF4E0CF0ED11C76
:104C300084E0E80EF11C94E0A90EB11C133091F64B
:104C400085E40E94BE258C83882309F494C00E94C9
:104C50009D146B017C0183E00E947713882371F01F
:104C60002091FD123091FE124091FF1250910013DD
:104C7000C701B6010E9488B96B017C01C092510B3B
:104C8000D092520BE092530BF092540B8091690535
:104C9000882351F18091AB1382FF26C08C81882339
:104CA00019F18981811103C08A818823E9F02DECF3
:104CB0003CEC4CEC5DE36091060A7091070A809130
:104CC000080A9091090A0E9488B99B01AC01609181
:104CD000F9127091FA128091FB129091FC120E94CD
:104CE000E8BB87FF0E94302286E40E94BE2588230D
:104CF000C9F00E949D1420E030E0A9010E94E8BBA9
:104D0000181684F40E949D1420E030E040E752E43D
:104D10000E9482BA60933B0270933C0280933D02F2
:104D200090933E020F900F900F900F90DF91CF91D4
:104D30001F91FF90EF90DF90CF90BF90AF909F902A
:104D40008F907F906F905F904F900895F501208134
:104D5000318142815381C301B2010E9487B95FCF83
:104D6000F70180819181A281B381F60180839183D3
:104D7000A283B38359CF8091FD129091FE12A0912E
:104D8000FF12B09100138093510B9093520BA0939C
:104D9000530BB093540B7ACFCF93DF93EB010E9468
:104DA000BE25882319F00E948D14EB01CE01DF91FE
:104DB000CF910895CF93DF93C82FD62F0E94BE25A1
:104DC000882321F0DF91CF910C94AE258C2F0E9487
:104DD0009113811101C08D2FDF91CF9108951F9301
:104DE000CF93DF93CDEFD9E018EAFE01812F119226
:104DF0008A95E9F70E94488C882359F0FE011192A8
:104E00001A95E9F780E293E0DF91CF911F910C941E
:104E10005594DF91CF911F9108958091690581117B
:104E200002C00C94EF268091AB1382FD0C943022CB
:104E300008959091FD09992321F081E02091A40A21
:104E4000291380E00895FC01238121110C9485151C
:104E5000089510928A0485E0809389040895CF9381
:104E6000DF93CDB7DEB7E4970FB6F894DEBF0FBE81
:104E7000CDBF7C018B01D42E0E94C12301151105E9
:104E800011F407EE1BE0E114F10421F439E8E32EFC
:104E900036E0F32E84E1E1E6F2E0DE019196019046
:104EA0000D928A95E1F76FE676E0C7010E941E1425
:104EB000882309F44DC06CE676E0C8010E941E14F8
:104EC00081119FC068E676E0C8010E941E1481111E
:104ED0009AC08FEF1A821982FE0133969EE1DF019C
:104EE0001D929A95E9F78E010F5F1F4F8F3FE1F0FA
:104EF000082E000C990BFC01EE0FFF1FE00FF11FB5
:104F000021A12F9320A12F9301969F938F938CE73C
:104F100096E09F938F931F930F930E9495B20FB6C5
:104F2000F894DEBF0FBECDBFB80180E090E20E94D2
:104F3000B1798BE690E00E94337989EE93E030E618
:104F4000019709F46AC0232F2A950000E9F7F8CFEA
:104F50006BE576E0C7010E941E14882389F068E59E
:104F600076E0C8010E941E1481114FC068E676E009
:104F7000C8010E941E14882309F4ABCF83E0AACF96
:104F800069E476E0C7010E941E14882389F066E474
:104F900076E0C8010E941E14811139C068E676E0EF
:104FA000C8010E941E14882309F493CF85E092CF94
:104FB00066E376E0C7010E941E14882389F063E34C
:104FC00076E0C8010E941E14811123C068E676E0D5
:104FD000C8010E941E14882309F47BCF87E07ACF92
:104FE00065E276E0C7010E941E14811114C066E1DB
:104FF00076E0C7010E941E14882309F46ACF89E075
:1050000069CF80E067CF81E065CF82E063CF84E045
:1050100061CF86E05FCF88E05DCFF89489EE93E0C2
:1050200038EE019729F0232F2A950000E9F7F9CFF0
:105030000E94C123DD2021F00E94DC13A895FECF41
:105040000E94DA13FBCF5F988A98809108018170E3
:1050500080930601129808959091AB1393FB8827D3
:1050600080F993FF06C081E09091E513911101C092
:1050700080E008959091C80095FFFCCF8093CE000A
:105080000895CF93DF93E3E7F3E191E2DF011D920F
:105090009A95E9F79091221390936F1390912313AF
:1050A000909370139BE09093711392E89093721316
:1050B00090EB909374139AE59093751395EA9093FF
:1050C0007613809378137093791360937A134093D7
:1050D0007C13CFE6D3E189910E943A28B3E1CD3722
:1050E000DB07C9F7DF91CF9108958091AB0A9091CA
:1050F000AC0A2FEF3FEF981751F0E92FF0E0E5559C
:10510000F54F228130E09F5F9F779093AC0AC901F1
:1051100008951F920F920FB60F9211240BB60F92A3
:105120002F938F939F93EF93FF932091AC0AE0917D
:10513000AB0A81E08E0F8F779091CE00281729F06F
:10514000F0E0E555F54F9283E82FE093AB0AFF912D
:10515000EF919F918F912F910F900BBE0F900FBEEB
:105160000F901F9018959091C00095FFFCCF8093F1
:10517000C6000895CF93DF93EC01FE018491219640
:10518000882319F00E94B328F8CFDF91CF910895BA
:10519000CF93C82FCB010E94BA2881EE90E10E94E4
:1051A000BA2882ED90E1CC2311F087ED90E10E94C6
:1051B000BA288AE0CF910C94B328CF938FEF90E177
:1051C0000E94BA288CB1C1E085FB882780F969EF7D
:1051D00070E18C270E94C828809103018695817018
:1051E00063EF70E18C270E94C82886B182FB882774
:1051F00080F96DEE70E18C270E94C8288CB18295F1
:10520000817064EE70E18C27CF910C94C828E091F6
:10521000B509F0E0E756FC4E8081882339F081EC37
:105220009BE00E94BA288AE00C94B32808950F935B
:105230001F93CF93DF938B010E94BA28E8018991D5
:10524000882319F00E94B328FACFDF91CF911F91E4
:105250000F91089588E996E00C94BA28FF920F9375
:105260001F93CF93DF936DE070E080E50E94CC2622
:105270008C0197FD3FC0C82F60E089E40E94DA26C8
:10528000811110C0802F0E944B14882359F00E9476
:105290002A2981EE9AE0DF91CF911F910F91FF9023
:1052A0000C94BA288DE40E94BE258823B9F00E9490
:1052B0009A25813079F028F0823071F08FE996E0FC
:1052C000EACF60E0802FDF91CF911F910F91FF9087
:1052D0000C94E38A61E0F6CF62E0F4CF83E50E94AC
:1052E000BE25882339F00E949A25F82EC93041F452
:1052F00080939E0BDF91CF911F910F91FF900895A6
:1053000061E0802F0E94E38A6F2D802F0E94B58A72
:10531000CF2DD0E061E0802F0E94E38A209749F4EE
:1053200060E0802FDF91CF911F910F91FF900C943F
:10533000B58ACF3FD10511F461E0F3CFF801FF2723
:10534000E654F04EE491E150E23108F0B0C0F0E0F4
:105350008827E255F64D8F4F0C94C2BCC029C52951
:10536000CA29D429DE29572AE829F029F829022A4E
:105370000C2A162A252A2F2A572A392A432A4D2A47
:1053800084B5806884BDF7BCB5CF84B5806284BD28
:10539000F8BCB0CF80918000806880938000D0936B
:1053A0008900C0938800A6CF80918000806280939E
:1053B0008000D0938B00C0938A009CCF80918000A6
:1053C000886080938000D0938D00C0938C0092CF32
:1053D0008091B00080688093B000F092B3008ACFD3
:1053E0008091B00080628093B000F092B40082CFD0
:1053F00080919000806880939000D0939900C09332
:10540000980078CF80919000806280939000D09334
:105410009B00C0939A006ECF80919000886080932B
:105420009000D0939D00C0939C0064CF8091A00019
:1054300080688093A0008091A0008F7B8093A00063
:10544000D093A900C093A80055CF8091A00080629E
:105450008093A000D093AB00C093AA004BCF809163
:10546000A00088608093A000D093AD00C093AC00F2
:1054700041CF80912001806880932001D093290141
:10548000C093280137CF8091200180628093200152
:10549000D0932B01C0932A012DCF809120018860E9
:1054A00080932001D0932D01C0932C0123CFC038CD
:1054B000D1050CF041CF34CF82E996E00C94BA28A4
:1054C0000F931F93CF93811113C0C42F8B010E94A0
:1054D0005C2A88EB9EE00E94BA28C8010E94BA2884
:1054E000CC2331F08AE0CF911F910F910C94B32817
:1054F000CF911F910F9108957F928F929F92AF92BB
:10550000BF92CF92DF92EF92FF920F931F93CF93B0
:10551000DF931F92CDB7DEB77C0159018B016B0180
:10552000C40ED51E0C151D05C9F1F70180809180B0
:10553000F80171908F017982C4010E94E3B8781656
:1055400001F1672DC4010E94F1B8C4010E94E3B8C3
:1055500099818917B1F00E945C2A8BE294E00E9445
:10556000BA2881E00F90DF91CF911F910F91FF90AA
:10557000EF90DF90CF90BF90AF909F908F907F90F3
:105580000895BE016F5F7F4FC5010E94B878F70193
:1055900080819181019691838083C4CF80E0E2CFA6
:1055A000CF92DF92EF92FF920F931F93CF93DF93EF
:1055B000CDB7DEB7A0970FB6F894DEBF0FBECDBF54
:1055C000611571058105910579F100E0C42ED12C9A
:1055D000F12CE12CA70196010E942CB911E0100FCB
:1055E000E1E0F0E0EC0FFD1FE00FF11D07FDFA9583
:1055F0006083B901CA01012F61157105810591050B
:1056000049F7115010F1E1E0F0E0EC0FFD1FE10F60
:10561000F11D17FDFA95908187E39A3008F480E335
:10562000890F0E94B328EDCF80E3A0960FB6F894BF
:10563000DEBF0FBECDBFDF91CF911F910F91FF90C5
:10564000EF90DF90CF900C94B328A0960FB6F8940B
:10565000DEBF0FBECDBFDF91CF911F910F91FF90A5
:10566000EF90DF90CF900895CF92DF92EF92FF926C
:105670006A017B010E94BA284AE0C701B601FF9087
:10568000EF90DF90CF900C94D02ACF93DF93EB0173
:105690000E94BA28BE0190E080E04AE0DF91CF91FD
:1056A0000C94D02ACF92DF92EF92FF920F931F9328
:1056B000CF93DF93CDB7DEB7CA58D1090FB6F894B0
:1056C000DEBF0FBECDBFC358DF4F188219821A82CA
:1056D0001B82CD57D0408091BC039091BD03A09117
:1056E000BE03B091BF03CF57DF4F88839983AA834E
:1056F000BB83C158D040CB57DF4F19821882C558A1
:10570000D04084E690E0C957DF4F99838883C7581B
:10571000D040109267059E012B573F4F44E050E068
:10572000BE016F577F4FCE0189579F4F0E947C2A41
:10573000C957DF4F88819981C758D0400296C95711
:10574000DF4F99838883C758D040CB57DF4F1982EA
:105750001882C558D04081E0C657DF4F8883CA58A9
:10576000D0409E012B573F4F41E050E0BE016657AD
:105770007F4FCE0189579F4F0E947C2A9E012B5755
:105780003F4F48E450E063E670E1CE0189579F4FF8
:105790000E947C2A9E012B573F4F40E150E06AE770
:1057A0007BE0CE0189579F4F0E947C2A8AE097EDCB
:1057B000A3EABCE3C358DF4F88839983AA83BB83E2
:1057C000CD57D0409E012B573F4F44E050E0BE01E3
:1057D00063587F4FCE0189579F4F0E947C2A9E01BC
:1057E0002B573F4F4CE050E069EA76E0CE018957F5
:1057F0009F4F0E947C2A19821A821B821C829E0162
:105800002B573F4F41E050E065E072E0CE018957F1
:105810009F4F0E947C2A9E012B573F4F44E050E04F
:105820008E010F5F1F4FB801CE0189579F4F0E9415
:105830007C2A80E090E0A0E2B1E489839A83AB8384
:10584000BC839E012B573F4F44E050E0B801CE018E
:1058500089579F4F0E947C2AC358DF4F18821982B4
:105860001A821B82CD57D0407E018DE6E80EF11CD6
:1058700083E0F701808389839E012B573F4F44E0EB
:1058800050E0BE0163587F4FCE0189579F4F0E9461
:105890007C2A9E012B573F4F41E050E0B701CE01DB
:1058A00089579F4F0E947C2A9E012B573F4F41E012
:1058B00050E0B801CE0189579F4F0E947C2A3AE000
:1058C000D32EDA94DD2071F09E012B573F4F44E038
:1058D00050E0BE0163587F4FCE0189579F4F0E9411
:1058E0007C2AEFCF8CE0F80111928A95E9F79E01AE
:1058F0002B573F4F4CE050E0B801CE0189579F4FE6
:105900000E947C2AC358DF4F188219821A821B8298
:10591000CD57D0402AE0D22EDA94DD2071F09E01DE
:105920002B573F4F44E050E0BE0163587F4FCE01FC
:1059300089579F4F0E947C2AEFCF88E0F701982F6C
:1059400011929A95E9F7F80111928A95E9F783E0A7
:10595000C757DF4F8883C958D040EA968FAFEA9780
:105960009E012B573F4F41E050E0BE0167577F4FEC
:10597000CE0189579F4F0E947C2A9E012B573F4F93
:1059800041E050E0BE0167587F4FCE0189579F4FDD
:105990000E947C2A9E012B573F4F48E050E0B801FF
:1059A000CE0189579F4F0E947C2A9E012B573F4F63
:1059B00048E050E0B701CE0189579F4F0E947C2AF2
:1059C000C358DF4F188219821A821B82CD57D040EC
:1059D0009AE0C92ED12CF1E0CF1AD10871F09E01C6
:1059E0002B573F4F44E050E0BE0163587F4FCE013C
:1059F00089579F4F0E947C2AEECF19828FEFF701C3
:105A000080839E012B573F4F41E050E0B801CE010B
:105A100089579F4F0E947C2A9E012B573F4F41E0A0
:105A200050E0B701CE0189579F4F0E947C2A80E148
:105A3000F80111928A95E9F79E012B573F4F40E1FB
:105A400050E0B801CE0189579F4F0E947C2A1982ED
:105A50009E012B573F4F41E050E0B801CE018957DE
:105A60009F4F0E947C2A8091750290917602A091AE
:105A70007702B091780289839A83AB83BC8380914B
:105A8000790290917A02A0917B02B0917C02F70199
:105A900080839183A283B383EA961FAEEA97EB9645
:105AA0001FAEEB979E012B573F4F44E050E0B801EB
:105AB000CE0189579F4F0E947C2A9E012B573F4F52
:105AC00044E050E0B701CE0189579F4F0E947C2AE5
:105AD0009E012B573F4F42E050E0BE0167587F4F79
